{
  "_format": "hh-sol-artifact-1",
  "contractName": "Ballot2",
  "sourceName": "contracts/Vote2.sol",
  "abi": [
    {
      "inputs": [],
      "stateMutability": "nonpayable",
      "type": "constructor"
    },
    {
      "inputs": [],
      "name": "admin",
      "outputs": [
        {
          "internalType": "address",
          "name": "",
          "type": "address"
        }
      ],
      "stateMutability": "view",
      "type": "function"
    },
    {
      "inputs": [],
      "name": "ballotCount",
      "outputs": [
        {
          "internalType": "uint256",
          "name": "",
          "type": "uint256"
        }
      ],
      "stateMutability": "view",
      "type": "function"
    },
    {
      "inputs": [
        {
          "internalType": "uint256",
          "name": "",
          "type": "uint256"
        }
      ],
      "name": "ballots",
      "outputs": [
        {
          "internalType": "string",
          "name": "title",
          "type": "string"
        },
        {
          "internalType": "string",
          "name": "description",
          "type": "string"
        },
        {
          "internalType": "uint256",
          "name": "candidateCount",
          "type": "uint256"
        },
        {
          "internalType": "uint256",
          "name": "totalVotes",
          "type": "uint256"
        },
        {
          "internalType": "uint256",
          "name": "expirationTime",
          "type": "uint256"
        }
      ],
      "stateMutability": "view",
      "type": "function"
    },
    {
      "inputs": [
        {
          "internalType": "string",
          "name": "_title",
          "type": "string"
        },
        {
          "internalType": "string",
          "name": "_description",
          "type": "string"
        },
        {
          "internalType": "string[]",
          "name": "_candidateNames",
          "type": "string[]"
        },
        {
          "internalType": "uint256",
          "name": "_expirationTimeInMinutes",
          "type": "uint256"
        }
      ],
      "name": "createBallot",
      "outputs": [],
      "stateMutability": "nonpayable",
      "type": "function"
    },
    {
      "inputs": [],
      "name": "getActiveBallots",
      "outputs": [
        {
          "internalType": "uint256[]",
          "name": "",
          "type": "uint256[]"
        },
        {
          "internalType": "string[]",
          "name": "",
          "type": "string[]"
        },
        {
          "internalType": "string[]",
          "name": "",
          "type": "string[]"
        }
      ],
      "stateMutability": "view",
      "type": "function"
    },
    {
      "inputs": [
        {
          "internalType": "uint256",
          "name": "_ballotId",
          "type": "uint256"
        }
      ],
      "name": "getBallotDetails",
      "outputs": [
        {
          "internalType": "string",
          "name": "",
          "type": "string"
        },
        {
          "internalType": "string",
          "name": "",
          "type": "string"
        },
        {
          "internalType": "uint256",
          "name": "",
          "type": "uint256"
        },
        {
          "internalType": "uint256",
          "name": "",
          "type": "uint256"
        },
        {
          "internalType": "uint256",
          "name": "",
          "type": "uint256"
        },
        {
          "internalType": "uint256",
          "name": "",
          "type": "uint256"
        },
        {
          "internalType": "string[]",
          "name": "",
          "type": "string[]"
        },
        {
          "internalType": "uint256[]",
          "name": "",
          "type": "uint256[]"
        }
      ],
      "stateMutability": "view",
      "type": "function"
    },
    {
      "inputs": [
        {
          "internalType": "uint256",
          "name": "_ballotId",
          "type": "uint256"
        }
      ],
      "name": "getWinner",
      "outputs": [
        {
          "internalType": "string",
          "name": "",
          "type": "string"
        }
      ],
      "stateMutability": "view",
      "type": "function"
    },
    {
      "inputs": [
        {
          "internalType": "uint256",
          "name": "_ballotId",
          "type": "uint256"
        },
        {
          "internalType": "uint256",
          "name": "_candidateIndex",
          "type": "uint256"
        }
      ],
      "name": "vote",
      "outputs": [],
      "stateMutability": "nonpayable",
      "type": "function"
    }
  ],
  "bytecode": "0x608060405234801561001057600080fd5b50336000806101000a81548173ffffffffffffffffffffffffffffffffffffffff021916908373ffffffffffffffffffffffffffffffffffffffff160217905550611fe3806100606000396000f3fe608060405234801561001057600080fd5b50600436106100885760003560e01c8063795e24151161005b578063795e241514610144578063b384abef14610164578063c003003214610180578063f851a4401461019e57610088565b80634129b2c91461008d5780634f8eb47f146100bd57806352bac743146100f45780635c632b3814610110575b600080fd5b6100a760048036038101906100a291906110d9565b6101bc565b6040516100b49190611196565b60405180910390f35b6100d760048036038101906100d291906110d9565b6103e7565b6040516100eb989796959493929190611391565b60405180910390f35b61010e60048036038101906101099190611646565b610730565b005b61012a600480360381019061012591906110d9565b61091f565b60405161013b959493929190611701565b60405180910390f35b61014c610a65565b60405161015b93929190611762565b60405180910390f35b61017e600480360381019061017991906117ae565b610da6565b005b610188611065565b60405161019591906117ee565b60405180910390f35b6101a661106b565b6040516101b3919061184a565b60405180910390f35b60606001548210610202576040517f08c379a00000000000000000000000000000000000000000000000000000000081526004016101f9906118b1565b60405180910390fd5b60006002600084815260200190815260200160002090508060050154421015610260576040517f08c379a00000000000000000000000000000000000000000000000000000000081526004016102579061191d565b60405180910390fd5b6000806000805b84600201548110156102f257838560030160008381526020019081526020016000206001015411156102ba57846003016000828152602001908152602001600020600101549350809250600091506102df565b8385600301600083815260200190815260200160002060010154036102de57600191505b5b80806102ea9061196c565b915050610267565b50801561033a576040518060400160405280600381526020017f54696500000000000000000000000000000000000000000000000000000000008152509450505050506103e2565b836003016000838152602001908152602001600020600001805461035d906119e3565b80601f0160208091040260200160405190810160405280929190818152602001828054610389906119e3565b80156103d65780601f106103ab576101008083540402835291602001916103d6565b820191906000526020600020905b8154815290600101906020018083116103b957829003601f168201915b50505050509450505050505b919050565b6060806000806000806060806000600260008b815260200190815260200160002090506000816002015467ffffffffffffffff81111561042a57610429611435565b5b60405190808252806020026020018201604052801561045d57816020015b60608152602001906001900390816104485790505b5090506000826002015467ffffffffffffffff8111156104805761047f611435565b5b6040519080825280602002602001820160405280156104ae5781602001602082028036833780820191505090505b50905060004284600501546104c39190611a14565b905060005b84600201548110156105de5784600301600082815260200190815260200160002060000180546104f7906119e3565b80601f0160208091040260200160405190810160405280929190818152602001828054610523906119e3565b80156105705780601f1061054557610100808354040283529160200191610570565b820191906000526020600020905b81548152906001019060200180831161055357829003601f168201915b505050505084828151811061058857610587611a48565b5b6020026020010181905250846003016000828152602001908152602001600020600101548382815181106105bf576105be611a48565b5b60200260200101818152505080806105d69061196c565b9150506104c8565b508360000184600101856002015486600401548760050154858888878054610605906119e3565b80601f0160208091040260200160405190810160405280929190818152602001828054610631906119e3565b801561067e5780601f106106535761010080835404028352916020019161067e565b820191906000526020600020905b81548152906001019060200180831161066157829003601f168201915b50505050509750868054610691906119e3565b80601f01602080910402602001604051908101604052809291908181526020018280546106bd906119e3565b801561070a5780601f106106df5761010080835404028352916020019161070a565b820191906000526020600020905b8154815290600101906020018083116106ed57829003601f168201915b505050505096509b509b509b509b509b509b509b509b5050505050919395975091939597565b60008054906101000a900473ffffffffffffffffffffffffffffffffffffffff1673ffffffffffffffffffffffffffffffffffffffff163373ffffffffffffffffffffffffffffffffffffffff16146107be576040517f08c379a00000000000000000000000000000000000000000000000000000000081526004016107b590611ac3565b60405180910390fd5b600060015490506000835190506000603c846107da9190611ae3565b426107e59190611b25565b90508660026000858152602001908152602001600020600001908161080a9190611d05565b508560026000858152602001908152602001600020600101908161082e9190611d05565b5081600260008581526020019081526020016000206002018190555080600260008581526020019081526020016000206005018190555060005b828110156108fd57604051806040016040528087838151811061088e5761088d611a48565b5b60200260200101518152602001600081525060026000868152602001908152602001600020600301600083815260200190815260200160002060008201518160000190816108dc9190611d05565b506020820151816001015590505080806108f59061196c565b915050610868565b50600160008154809291906109119061196c565b919050555050505050505050565b6002602052806000526040600020600091509050806000018054610942906119e3565b80601f016020809104026020016040519081016040528092919081815260200182805461096e906119e3565b80156109bb5780601f10610990576101008083540402835291602001916109bb565b820191906000526020600020905b81548152906001019060200180831161099e57829003601f168201915b5050505050908060010180546109d0906119e3565b80601f01602080910402602001604051908101604052809291908181526020018280546109fc906119e3565b8015610a495780601f10610a1e57610100808354040283529160200191610a49565b820191906000526020600020905b815481529060010190602001808311610a2c57829003601f168201915b5050505050908060020154908060040154908060050154905085565b60608060606000805b600154811015610ab8576002600082815260200190815260200160002060050154421015610aa5578180610aa19061196c565b9250505b8080610ab09061196c565b915050610a6e565b5060008167ffffffffffffffff811115610ad557610ad4611435565b5b604051908082528060200260200182016040528015610b035781602001602082028036833780820191505090505b50905060008267ffffffffffffffff811115610b2257610b21611435565b5b604051908082528060200260200182016040528015610b5557816020015b6060815260200190600190039081610b405790505b50905060008367ffffffffffffffff811115610b7457610b73611435565b5b604051908082528060200260200182016040528015610ba757816020015b6060815260200190600190039081610b925790505b5090506000805b600154811015610d92576002600082815260200190815260200160002060050154421015610d7f5780858381518110610bea57610be9611a48565b5b602002602001018181525050600260008281526020019081526020016000206000018054610c17906119e3565b80601f0160208091040260200160405190810160405280929190818152602001828054610c43906119e3565b8015610c905780601f10610c6557610100808354040283529160200191610c90565b820191906000526020600020905b815481529060010190602001808311610c7357829003601f168201915b5050505050848381518110610ca857610ca7611a48565b5b6020026020010181905250600260008281526020019081526020016000206001018054610cd4906119e3565b80601f0160208091040260200160405190810160405280929190818152602001828054610d00906119e3565b8015610d4d5780601f10610d2257610100808354040283529160200191610d4d565b820191906000526020600020905b815481529060010190602001808311610d3057829003601f168201915b5050505050838381518110610d6557610d64611a48565b5b60200260200101819052508180610d7b9061196c565b9250505b8080610d8a9061196c565b915050610bae565b508383839750975097505050505050909192565b60008054906101000a900473ffffffffffffffffffffffffffffffffffffffff1673ffffffffffffffffffffffffffffffffffffffff163373ffffffffffffffffffffffffffffffffffffffff1603610e34576040517f08c379a0000000000000000000000000000000000000000000000000000000008152600401610e2b90611e23565b60405180910390fd5b816002600082815260200190815260200160002060060160003373ffffffffffffffffffffffffffffffffffffffff1673ffffffffffffffffffffffffffffffffffffffff16815260200190815260200160002060009054906101000a900460ff1615610ed6576040517f08c379a0000000000000000000000000000000000000000000000000000000008152600401610ecd90611eb5565b60405180910390fd5b6001548310610f1a576040517f08c379a0000000000000000000000000000000000000000000000000000000008152600401610f11906118b1565b60405180910390fd5b600060026000858152602001908152602001600020905080600501544210610f77576040517f08c379a0000000000000000000000000000000000000000000000000000000008152600401610f6e90611f21565b60405180910390fd5b80600201548310610fbd576040517f08c379a0000000000000000000000000000000000000000000000000000000008152600401610fb490611f8d565b60405180910390fd5b8060030160008481526020019081526020016000206001016000815480929190610fe69061196c565b91905055508060040160008154809291906110009061196c565b919050555060018160060160003373ffffffffffffffffffffffffffffffffffffffff1673ffffffffffffffffffffffffffffffffffffffff16815260200190815260200160002060006101000a81548160ff02191690831515021790555050505050565b60015481565b60008054906101000a900473ffffffffffffffffffffffffffffffffffffffff1681565b6000604051905090565b600080fd5b600080fd5b6000819050919050565b6110b6816110a3565b81146110c157600080fd5b50565b6000813590506110d3816110ad565b92915050565b6000602082840312156110ef576110ee611099565b5b60006110fd848285016110c4565b91505092915050565b600081519050919050565b600082825260208201905092915050565b60005b83811015611140578082015181840152602081019050611125565b60008484015250505050565b6000601f19601f8301169050919050565b600061116882611106565b6111728185611111565b9350611182818560208601611122565b61118b8161114c565b840191505092915050565b600060208201905081810360008301526111b0818461115d565b905092915050565b6111c1816110a3565b82525050565b600081519050919050565b600082825260208201905092915050565b6000819050602082019050919050565b600082825260208201905092915050565b600061120f82611106565b61121981856111f3565b9350611229818560208601611122565b6112328161114c565b840191505092915050565b60006112498383611204565b905092915050565b6000602082019050919050565b6000611269826111c7565b61127381856111d2565b935083602082028501611285856111e3565b8060005b858110156112c157848403895281516112a2858261123d565b94506112ad83611251565b925060208a01995050600181019050611289565b50829750879550505050505092915050565b600081519050919050565b600082825260208201905092915050565b6000819050602082019050919050565b611308816110a3565b82525050565b600061131a83836112ff565b60208301905092915050565b6000602082019050919050565b600061133e826112d3565b61134881856112de565b9350611353836112ef565b8060005b8381101561138457815161136b888261130e565b975061137683611326565b925050600181019050611357565b5085935050505092915050565b60006101008201905081810360008301526113ac818b61115d565b905081810360208301526113c0818a61115d565b90506113cf60408301896111b8565b6113dc60608301886111b8565b6113e960808301876111b8565b6113f660a08301866111b8565b81810360c0830152611408818561125e565b905081810360e083015261141c8184611333565b90509998505050505050505050565b600080fd5b600080fd5b7f4e487b7100000000000000000000000000000000000000000000000000000000600052604160045260246000fd5b61146d8261114c565b810181811067ffffffffffffffff8211171561148c5761148b611435565b5b80604052505050565b600061149f61108f565b90506114ab8282611464565b919050565b600067ffffffffffffffff8211156114cb576114ca611435565b5b6114d48261114c565b9050602081019050919050565b82818337600083830152505050565b60006115036114fe846114b0565b611495565b90508281526020810184848401111561151f5761151e611430565b5b61152a8482856114e1565b509392505050565b600082601f8301126115475761154661142b565b5b81356115578482602086016114f0565b91505092915050565b600067ffffffffffffffff82111561157b5761157a611435565b5b602082029050602081019050919050565b600080fd5b60006115a461159f84611560565b611495565b905080838252602082019050602084028301858111156115c7576115c661158c565b5b835b8181101561160e57803567ffffffffffffffff8111156115ec576115eb61142b565b5b8086016115f98982611532565b855260208501945050506020810190506115c9565b5050509392505050565b600082601f83011261162d5761162c61142b565b5b813561163d848260208601611591565b91505092915050565b600080600080608085870312156116605761165f611099565b5b600085013567ffffffffffffffff81111561167e5761167d61109e565b5b61168a87828801611532565b945050602085013567ffffffffffffffff8111156116ab576116aa61109e565b5b6116b787828801611532565b935050604085013567ffffffffffffffff8111156116d8576116d761109e565b5b6116e487828801611618565b92505060606116f5878288016110c4565b91505092959194509250565b600060a082019050818103600083015261171b818861115d565b9050818103602083015261172f818761115d565b905061173e60408301866111b8565b61174b60608301856111b8565b61175860808301846111b8565b9695505050505050565b6000606082019050818103600083015261177c8186611333565b90508181036020830152611790818561125e565b905081810360408301526117a4818461125e565b9050949350505050565b600080604083850312156117c5576117c4611099565b5b60006117d3858286016110c4565b92505060206117e4858286016110c4565b9150509250929050565b600060208201905061180360008301846111b8565b92915050565b600073ffffffffffffffffffffffffffffffffffffffff82169050919050565b600061183482611809565b9050919050565b61184481611829565b82525050565b600060208201905061185f600083018461183b565b92915050565b7f496e76616c69642062616c6c6f74204944000000000000000000000000000000600082015250565b600061189b601183611111565b91506118a682611865565b602082019050919050565b600060208201905081810360008301526118ca8161188e565b9050919050565b7f42616c6c6f7420686173206e6f74206578706972656420796574000000000000600082015250565b6000611907601a83611111565b9150611912826118d1565b602082019050919050565b60006020820190508181036000830152611936816118fa565b9050919050565b7f4e487b7100000000000000000000000000000000000000000000000000000000600052601160045260246000fd5b6000611977826110a3565b91507fffffffffffffffffffffffffffffffffffffffffffffffffffffffffffffffff82036119a9576119a861193d565b5b600182019050919050565b7f4e487b7100000000000000000000000000000000000000000000000000000000600052602260045260246000fd5b600060028204905060018216806119fb57607f821691505b602082108103611a0e57611a0d6119b4565b5b50919050565b6000611a1f826110a3565b9150611a2a836110a3565b9250828203905081811115611a4257611a4161193d565b5b92915050565b7f4e487b7100000000000000000000000000000000000000000000000000000000600052603260045260246000fd5b7f4e6f7420617574686f72697a6564000000000000000000000000000000000000600082015250565b6000611aad600e83611111565b9150611ab882611a77565b602082019050919050565b60006020820190508181036000830152611adc81611aa0565b9050919050565b6000611aee826110a3565b9150611af9836110a3565b9250828202611b07816110a3565b91508282048414831517611b1e57611b1d61193d565b5b5092915050565b6000611b30826110a3565b9150611b3b836110a3565b9250828201905080821115611b5357611b5261193d565b5b92915050565b60008190508160005260206000209050919050565b60006020601f8301049050919050565b600082821b905092915050565b600060088302611bbb7fffffffffffffffffffffffffffffffffffffffffffffffffffffffffffffffff82611b7e565b611bc58683611b7e565b95508019841693508086168417925050509392505050565b6000819050919050565b6000611c02611bfd611bf8846110a3565b611bdd565b6110a3565b9050919050565b6000819050919050565b611c1c83611be7565b611c30611c2882611c09565b848454611b8b565b825550505050565b600090565b611c45611c38565b611c50818484611c13565b505050565b5b81811015611c7457611c69600082611c3d565b600181019050611c56565b5050565b601f821115611cb957611c8a81611b59565b611c9384611b6e565b81016020851015611ca2578190505b611cb6611cae85611b6e565b830182611c55565b50505b505050565b600082821c905092915050565b6000611cdc60001984600802611cbe565b1980831691505092915050565b6000611cf58383611ccb565b9150826002028217905092915050565b611d0e82611106565b67ffffffffffffffff811115611d2757611d26611435565b5b611d3182546119e3565b611d3c828285611c78565b600060209050601f831160018114611d6f5760008415611d5d578287015190505b611d678582611ce9565b865550611dcf565b601f198416611d7d86611b59565b60005b82811015611da557848901518255600182019150602085019450602081019050611d80565b86831015611dc25784890151611dbe601f891682611ccb565b8355505b6001600288020188555050505b505050505050565b7f41646d696e732063616e6e6f7420766f74650000000000000000000000000000600082015250565b6000611e0d601283611111565b9150611e1882611dd7565b602082019050919050565b60006020820190508181036000830152611e3c81611e00565b9050919050565b7f596f75206861766520616c726561647920766f74656420696e2074686973206260008201527f616c6c6f74000000000000000000000000000000000000000000000000000000602082015250565b6000611e9f602583611111565b9150611eaa82611e43565b604082019050919050565b60006020820190508181036000830152611ece81611e92565b9050919050565b7f42616c6c6f742068617320657870697265640000000000000000000000000000600082015250565b6000611f0b601283611111565b9150611f1682611ed5565b602082019050919050565b60006020820190508181036000830152611f3a81611efe565b9050919050565b7f496e76616c69642063616e64696461746520696e646578000000000000000000600082015250565b6000611f77601783611111565b9150611f8282611f41565b602082019050919050565b60006020820190508181036000830152611fa681611f6a565b905091905056fea2646970667358221220d04dba9a951f990e3c6467a56c99752f997260669a359497da539bce3183067a64736f6c63430008130033",
  "linkReferences": {},
  "deployedLinkReferences": {}
}